:100000000C94D12B0C94F22B0C94F22B0C940A64CC
:100010000C94F22B0C94F22B0C94F22B0C94F22BEC
:100020000C94F22B0C94F22B0C94F22B0C94F22BDC
:100030000C94F22B0C94F22B0C94F22B0C94F22BCC
:100040000C94F22B0C94987F0C94F22B0C94F22BC2
:100050000C94F22B0C94F22B0C94F22B0C948C3D00
:100060000C94F22B0C94F22B0C94F22B0C94F22B9C
:100070000C94F22B0C945D7F0C94F22B0C94F22BCD
:100080000C94F22B0C94F22B0C94F22B0C945D64D8
:100090000C94F22B0C94F22B0C94F22B0C94F22B6C
:1000A0000C94F22B0C94F22B0C94F22B0C94F22B5C
:1000B0000C94F22B0C94F22B0C94F22B0C94F22B4C
:1000C0000C94F22B0C94F22B0C94F22B05A84CCD33
:1000D000B2D44EB93836A9020C50B9918688083C82
:1000E000A6AAAA2ABE000000803FC0FFFFFFFF00B3
:1000F000F0FFFFFFFF03F0FFFFFFFF03F0FFFFFF35
:10010000FF03FCFFFFFFFF1FFCFFFFFFFF1FFCFFC4
:10011000FFFFFF1FFFFFFFFFFF3FFFFFFFFFFF3F4F
:10012000FFFFFFFFFF3FFF070000F03FFF0700005A
:10013000F03FFF070000F03FFF070000F03FFF0720
:100140000000F03FFF070000F03FFF070000F03F16
:10015000FF070000F03FFF070000F03FFF0700002F
:10016000F03FFF070000F03FFF070000F03FFF07F0
:100170000000F03FFF070000F03FFF070000F03FE6
:10018000FF070000F03FFF070000F03FFF070000FF
:10019000F03FFF070000F03FFF070000F03FFF07C0
:1001A0000000F03FFF070000F03FFF070000F03FB6
:1001B000FF070000F03FFF070000F03FFF070000CF
:1001C000F03FFF070000F03FFF070000F03FFF0790
:1001D0000000F03FFF070000F03FFF070000F03F86
:1001E000FF070000F03FFF070000F03FFF0700009F
:1001F000F03FFF070000F03FFF070000F03FFF0760
:100200000000F03FFF070000F03FFF070000F03F55
:10021000FF070000F03FFF070000F03FFF0700006E
:10022000F03FFF070000F03FFF070000F03FFF072F
:100230000000F03FFF070000F03FFF070000F03F25
:10024000FF070000F03FFF070000F03FFF0700003E
:10025000F03FFF070000F03FFF070000F03FFF07FF
:100260000000F03FFF070000F03FFF070000F03FF5
:10027000FF070000F03FFF070000F03FFF0700000E
:10028000F03FFF070000F03FFF070000F03FFF07CF
:100290000000F03FFF070000F03FFFFFFFFFFF3FC0
:1002A000FFFFFFFFFF3FFFFFFFFFFF3FFCFFFFFFE1
:1002B000FF1FFCFFFFFFFF1FFCFFFFFFFF1FF0FF03
:1002C000FFFFFF03F0FFFFFFFF03F0FFFFFFFF0350
:1002D000C0FFFFFFFF00F8FFFF0F0000F8FFFF0F58
:1002E0000000FFFFFF0F0000FFFFFF0F0000FFFFF8
:1002F000FF0F0000FFFFFF0F0000FFFFFF0F0000D8
:10030000FFFFFF0F0000FFFFFF0F0000FFFFFF0FC9
:100310000000F8FFFF0F00000000FC0F00000000CD
:10032000FC0F00000000FC0F00000000FC0F0000AC
:100330000000FC0F00000000FC0F00000000FC0F9C
:1003400000000000FC0F00000000FC0F0000000097
:10035000FC0F00000000FC0F00000000FC0F00007C
:100360000000FC0F00000000FC0F00000000FC0F6C
:1003700000000000FC0F00000000FC0F0000000067
:10038000FC0F00000000FC0F00000000FC0F00004C
:100390000000FC0F00000000FC0F00000000FC0F3C
:1003A00000000000FC0F00000000FC0F0000000037
:1003B000FC0F00000000FC0F00000000FC0F00001C
:1003C0000000FC0F00000000FC0F00000000FC0F0C
:1003D00000000000FC0F00000000FC0F0000000007
:1003E000FC0F00000000FC0F800F0000FC0F800FCE
:1003F0000000FC0FC00F0000FC0FC00F0000FC0F3E
:10040000E01F0000FC0FE01F0000FC0FE01F0000D9
:10041000FC0FE01F0000FC0FE01F0000FC0FE01FBE
:100420000000FC0FE01F0000FC0FE01F0000FC0FAD
:10043000E01F0000FC0FE01F0000FC0FE01F0000A9
:10044000FC0FE01F0000FC0FE01F0000FC0FE01F8E
:100450000000FC0FE01F0000FC0FE01F0000FC0F7D
:10046000E01F0000FC0FE01F0000FC0FE01F000079
:10047000FC0FE01F0000FC0FE01F0000FC0FE01F5E
:100480000000FC0FE01F0000FC0FE01F0000FC0F4D
:10049000E01FFFFFFFFFFF1FFFFFFFFFFF1FFFFF2B
:1004A000FFFFFF1FFFFFFFFFFF1FFFFFFFFFFF1FFC
:1004B000FFFFFFFFFF1FFFFFFFFFFF1FFFFFFFFF0C
:1004C000FF0FFCFFFFFF7F00FEFFFFFFFF03FEFFAC
:1004D000FFFFFF03FFFFFFFFFF07FFFFFFFFFF0718
:1004E000FFFFFFFFFF0FFFFFFFFFFF0FFFFFFFFFFC
:1004F000FF3FFEFFFFFFFF3FFEFFFFFFFF3FFCFF51
:10050000FFFFFF3F00000000E03F00000000E03F71
:1005100000000000E03F00000000E03F000000009D
:10052000E03F00000000E03F00000000E03F00006E
:100530000000E03F00000000E03F00000000E03F5E
:1005400000000000E03F00000000E03F000000006D
:10055000E03F00000000E03F00000000E03F00003E
:100560000000E03F00000000E03F00000000E03F2E
:1005700000000000E03F00000000E03F000000003D
:10058000E03F00000000E03F00000000E03F00000E
:100590000000E03FE0FFFFFFFF3FE0FFFFFFFF3F06
:1005A000E0FFFFFFFF3FFCFFFFFFFF3FFCFFFFFF00
:1005B000FF3FFEFFFFFFFF0FFEFFFFFFFF0FFFFFED
:1005C000FFFFFF07FFFFFFFFFF03FFFFFFFFFF032B
:1005D000FFFFFFFFFF03FFFFFFFF7F00FF030000A0
:1005E0000000FF0300000000FF0300000000FF0305
:1005F00000000000FF0300000000FF0300000000F7
:10060000FF0300000000FF0300000000FF030000E4
:100610000000FF0300000000FF0300000000FF03D4
:1006200000000000FF0300000000FF0300000000C6
:10063000FF0300000000FF0300000000FF030000B4
:100640000000FF0300000000FF0300000000FF03A4
:1006500000000000FF0300000000FF030000000096
:10066000FF0300000000FF0300000000FFFFFFFF8A
:10067000FF07FFFFFFFFFF07FFFFFFFFFF0FFFFF6A
:10068000FFFFFF3FFFFFFFFFFF3FFFFFFFFFFF3FBA
:10069000FFFFFFFFFF3FFFFFFFFFFF3FFFFFFFFFEA
:1006A000FF3FFFFFFFFFFF0FFFFFFFFFFF07FCFF05
:1006B000FFFFFF01FEFFFFFFFF0FFEFFFFFFFF0F2A
:1006C000FFFFFFFFFF1FFFFFFFFFFF3FFFFFFFFFDA
:1006D000FF3FFFFFFFFFFF3FFFFFFFFFFF3FFEFF6B
:1006E000FFFFFF3FFEFFFFFFFF3FFCFFFFFFFF3F5E
:1006F00000000000C03F00000000C03F00000000FC
:10070000C03F00000000C03F00000000C03F0000EC
:100710000000C03F00000000C03F00000000C03FDC
:1007200000000000C03F00000000C03F00000000CB
:10073000C03F00000000C03F00000000C03F0000BC
:100740000000C03F00000000C03F00000000C03FAC
:1007500000000000C03F00000000C03F000000009B
:10076000C03F00000000C03F00000000C03F00008C
:100770000000C03F00000000E03F00000000F03F2C
:1007800000F8FFFFFF3F00F8FFFFFF3F00FCFFFF07
:10079000FF3F00FEFFFFFF1F00FEFFFFFF0F00FEF9
:1007A000FFFFFF0F00FEFFFFFF0F00FEFFFFFF1F19
:1007B00000FEFFFFFF1F00FCFFFFFF3F00F8FFFFF1
:1007C000FF3F00000000F03F00000000F03F00008D
:1007D0000000E03F00000000C03F00000000C03FFC
:1007E00000000000C03F00000000C03F000000000B
:1007F000C03F00000000C03F00000000C03F0000FC
:100800000000C03F00000000C03F00000000C03FEB
:1008100000000000C03F00000000C03F00000000DA
:10082000C03F00000000C03F00000000C03F0000CB
:100830000000C03F00000000C03F00000000C03FBB
:1008400000000000C03F00000000C03F00000000AA
:10085000C03F00000000C03FFCFFFFFFFF3FFEFF66
:10086000FFFFFF3FFFFFFFFFFF3FFFFFFFFFFF3FD8
:10087000FFFFFFFFFF3FFFFFFFFFFF3FFFFFFFFF08
:10088000FF3FFFFFFFFFFF1FFEFFFFFFFF0FFCFF0C
:10089000FFFFFF01FCFFFFFFFF01FC000000000065
:1008A000FC0000000000FE0100000000FF07000047
:1008B0000000FF0700000000FF0700000000FF0726
:1008C00000000000FF0700000000FF07000000001C
:1008D000FF0700000000FF0700001F00FF07008067
:1008E0007F00FF0700807F00FF0700C0FF01FF07B8
:1008F00000C0FF01FF0700C0FF01FF0700C0FF01AC
:10090000FF0700C0FF01FF0700C0FF01FF0700C095
:10091000FF01FF0700C0FF01FF0700C0FF01FF0745
:1009200000C0FF01FF0700C0FF01FF0700C0FF017B
:10093000FF0700C0FF01FF0700C0FF01FF0700C065
:10094000FF01FF0700C0FF01FF0700C0FF01FF0715
:1009500000C0FF01FF0700C0FF01FF0700C0FF014B
:10096000FF0700C0FF01FF0700C0FF01FF0700C035
:10097000FF01FF0700C0FF01FF0700C0FF01FF07E5
:1009800000C0FF01FF0700C0FF01FF0700C0FF011B
:10099000FF0700C0FF01FF0700C0FF01FF0700C005
:1009A000FF01FF0700C0FF01FFFFFFFFFF07FFFF81
:1009B000FFFFFF0FFFFFFFFFFF0FFFFFFFFFFF3FE7
:1009C000FFFFFFFFFF3FFFFFFFFFFF3FFFFFFFFFB7
:1009D000FF3FFFFFFFFFFF3FFFFFFFFFFF0FFFFF97
:1009E000FFFFFF0FFFFFFFFFFF07000000C0FF0139
:1009F000000000C0FF01000000C0FF01000000C0B7
:100A0000FF01000000C0FF01000000C0FF01000066
:100A100000C0FF01000000C0FF01000000C0FF0196
:100A2000000000C0FF01000000C0FF01000000C086
:100A3000FF01000000C0FF01000000C0FF01000036
:100A400000C0FF01000000C0FF01000000C0FF0166
:100A5000000000C0FF01000000C0FF01000000C056
:100A6000FF01000000C0FF01000000C0FF01000006
:100A700000C0FF01000000807F00000000001F0098
:100A8000000000001F0000FEFFFFFF0700FEFFFF49
:100A9000FF0F00FEFFFFFF0F00FEFFFFFF3F00FE06
:100AA000FFFFFF3F00FEFFFFFF3F00FEFFFFFF3F96
:100AB00000FEFFFFFF3F00FEFFFFFF0F00FEFFFFF6
:100AC000FF0700FEFFFFFF0700FE0300000000FE1F
:100AD0000300000000FE0300000000FE0300000011
:100AE00000FE0300000000FE0300000000FE030003
:100AF000000000FE0300000000FE0300000000FEF6
:100B00000300000000FE0300000000FE03000000E0
:100B100000FE0300000000FE0300000000FE0300D2
:100B2000000000FE0300000000FE0300000000FEC5
:100B30000300000000FE0300000000FE03000000B0
:100B400000FE0300000000FE0300000000FE0300A2
:100B5000000000FE0300000000FEFFFF3F0000FE5B
:100B6000FFFFFF0100FEFFFFFF0100FEFFFFFF0789
:100B700000FEFFFFFF0F00FEFFFFFF0F00FEFFFF65
:100B8000FF0F00FEFFFFFF3F00FEFFFFFF3F00FEE5
:100B9000FFFFFF3F00FEFFFFFF3F00000000F83FA8
:100BA00000000000F83F00000000F83F00000000D7
:100BB000F83F00000000F83F00000000F83F000090
:100BC0000000F83F00000000F83F00000000F83F80
:100BD00000000000F83F00000000F83F00000000A7
:100BE000F83F00000000F83F00000000F83F000060
:100BF0000000F83F00000000F83F00000000F83F50
:100C000000000000F83F00000000F83F0000000076
:100C1000F83F7E000000F83FFF010000F83FFF01B1
:100C20000000F83FFF0F0000F83FFFFFFFFFFF3F0E
:100C3000FFFFFFFFFF3FFFFFFFFFFF3FFFFFFFFF44
:100C4000FF3FFFFFFFFFFF0FFEFFFFFFFF0FFEFF56
:100C5000FFFFFF0FF0FFFFFFFF0700FFFFFFFF0198
:100C600000F8FFFF3F0000F8FFFF3F0000F8FFFF24
:100C70003F00FC1F00000000FE1F00000000FE1FE0
:100C800000000000FF7F00000000FF7F0000000068
:100C9000FF7F00000000FF7F00000000FF7F0000DA
:100CA0000000FF1F00000000FF1F00000000FF1FEA
:100CB00000000000FF0300000000FF030000000030
:100CC000FF0300000000FF0300000000FF0300001E
:100CD0000000FF0300000000FF0300000000FF030E
:100CE00000000000FF0300000000FF030000000000
:100CF000FF0300000000FF0300000000FF030000EE
:100D00000000FF0300000000FF0300000000FF03DD
:100D100000000000FF0300000000FF0300000000CF
:100D2000FF0300000000FF0300000000FF030000BD
:100D30000000FF0300000000FF0300000000FF03AD
:100D400000000000FF0300000000FF03000000009F
:100D5000FF0300000000FF0300000000FF0300008D
:100D60000000FF0300000000FF0300000000FF037D
:100D700000000000FF0300000000FF03000000006F
:100D8000FFFFFFFFFF0FFFFFFFFFFF1FFFFFFFFF43
:100D9000FF1FFFFFFFFFFF3FFFFFFFFFFF3FFFFFC3
:100DA000FFFFFF3FFFFFFFFFFF3FFFFFFFFFFF3F93
:100DB000FFFFFFFFFF3FFFFFFFFFFF3FFFFFFFFFC3
:100DC000FF3FFF030000F03FFF030000F03FFF0381
:100DD0000000F03FFF030000F03FFF030000F03F82
:100DE000FF030000F03FFF030000F03FFF0300009F
:100DF000F03FFF030000F03FFF030000F03FFF0360
:100E00000000F03FFF030000F03FFF030000F03F51
:100E1000FF030000F03FFF030000F03FFFFFFFFF74
:100E2000FF3FFFFFFFFFFF3FFFFFFFFFFF3FFFFF12
:100E3000FFFFFF3FFFFFFFFFFF3FFFFFFFFFFF3F02
:100E4000FFFFFFFFFF3FFFFFFFFFFF3FFEFFFFFF33
:100E5000FF1FFEFFFFFFFF1FFCFFFFFFFF0FFEFF57
:100E6000FFFFFF3FFFFFFFFFFF3FFFFFFFFFFF3FD2
:100E7000FFFFFFFFFF3FFFFFFFFFFF3FFFFFFFFF02
:100E8000FF3FFFFFFFFFFF3FFFFFFFFFFF3FFFFFB2
:100E9000FFFFFF3FFFFFFFFFFF3FFFFFFFFFFF3FA2
:100EA000FF010000F03F7F000000F03F7F000000E6
:100EB000F03F7E000000F03F00000000F03F000027
:100EC0000000F03F00000000F03F00000000F03F95
:100ED00000000000F03F00000000F03F00000000B4
:100EE000F03F00000000F03F00000000F03F000075
:100EF0000000F03F00000000F03F00000000F03F65
:100F000000000000F03F00000000F03F0000000083
:100F1000F03F00000000FC3F00000000FC3F00002C
:100F20000000FC3F00000000FF3F00000080FF1FAA
:100F300000000080FF1F000000E0FF07000000F03D
:100F4000FF03000000F0FF03000000F8FF010000B5
:100F500000FE7F00000080FF7F00000080FF7F0018
:100F60000000C0FF0F000000E0FF0F000000F0FFD6
:100F700003000000F0FF03000000F8FF0000000085
:100F8000FC7F00000000FC7F00000000FC1F000050
:100F90000000FC0F00000000FC0700000000FC0740
:100FA00000000000FC0700000000FC07000000003B
:100FB000FC0700000000FC0700000000FC07000028
:100FC0000000FC0700000000FC0700000000FC0718
:100FD00000000000FC0700000000FC07000000000B
:100FE000FC0700000000FC0700000000FC070000F8
:100FF0000000FC0700000000FC0700000000FC07E8
:1010000000000000FC0700000000FC0700000000DA
:10101000FC0700000000FC0700000000FC070000C7
:101020000000FC0700000000FC0700000000FC07B7
:1010300000000000FC0700000000FC0700000000AA
:10104000F80300000000F001000000F0FFFF0300C3
:1010500000F8FFFF070000F8FFFF070000FCFFFF9C
:101060000F0000FCFFFF0F0000FCFFFF0F0000FC63
:10107000FFFF0F0000FCFFFF0F0000FCFFFF0F0051
:1010800000FCFFFF0F0000FCFFFF0F0000FC0FFC47
:101090000F0000FC0FFC0F0000FC0FFC0F0000FC19
:1010A0000FFC0F0000FC0FFC0F0000FC0FFC0F00FA
:1010B00000FC0FFC0F0000FC0FFC0F0000FC0FFCFD
:1010C0000F0000FC0FFC0F0000FC0FFC0F0000FCE9
:1010D0000FFC0F0000FC0FFC0F0000FC0FFC0F00CA
:1010E00000FC0FFC0F0000FC0FFC0F0000FC0FFCCD
:1010F0000F0000FC0FFC0F0000FC0FFC0F0000FCB9
:101100000FFC0F0000FC0FFC0F0000FC0FFC0F0099
:1011100000FC0FFC0F0000FC0FFC0F0000FC0FFC9C
:101120000F00E0FFFFFFFF01F8FFFFFFFF07FCFFDD
:10113000FFFFFF0FFCFFFFFFFF0FFEFFFFFFFF1F83
:10114000FEFFFFFFFF1FFFFFFFFFFF3FFFFFFFFF50
:10115000FF3FFFFFFFFFFF3FFFFFFFFFFF3FFF03DB
:101160000000F03FFF030000F03FFF030000F03FEE
:10117000FF030000F03FFF030000F03FFF0300000B
:10118000F03FFF030000F03FFF030000F03FFF03CC
:101190000000F03FFF030000F03FFF030000F03FBE
:1011A000FF030000F03FFF030000F03FFF030000DB
:1011B000F03FFF030000F03FFF030000F03FFF039C
:1011C0000000F03FFF030000F03FFF030000F03F8E
:1011D000FF030000F03FFF030000F03FFF030000AB
:1011E000F03FFF030000F03FFF030000F03FFF036C
:1011F0000000F03FFFFFFFFFFF3FFFFFFFFFFF3F4C
:10120000FFFFFFFFFF3FFFFFFFFFFF3FFEFFFFFF6F
:10121000FF1FFEFFFFFFFF1FFEFFFFFFFF1FFCFF83
:10122000FFFFFF0FF8FFFFFFFF07F8FFFFFFFF07BC
:10123000E0FFFFFFFF01FCFFFFFFFF1FFEFFFFFFBF
:10124000FF1FFEFFFFFFFF1FFFFFFFFFFF3FFFFF2F
:10125000FFFFFF3FFFFFFFFFFF3FFFFFFFFFFF3FDE
:10126000FFFFFFFFFF3FFFFFFFFFFF3FFFFFFFFF0E
:10127000FF3FFFFFFFFFFF3FFF030000E03FFF03D3
:101280000000E03FFF030000E03FFF030000E03FFD
:10129000FF030000E03FFF030000E03FFF0300000A
:1012A000E03FFF030000E03FFF030000E03FFF03DB
:1012B0000000E03FFF030000E03FFF030000E03FCD
:1012C000FF030000E03FFF030000E03FFF030000DA
:1012D000E03FFFFFFFFFFF3FFFFFFFFFFF3FFFFF7D
:1012E000FFFFFF3FFFFFFFFFFF3FFFFFFFFFFF3F4E
:1012F000FFFFFFFFFF3FFFFFFFFFFF3FFFFFFFFF7E
:10130000FF3FFEFFFFFFFF3FFEFFFFFFFF3FFCFF32
:10131000FFFFFF3F00000000E03F00000000E03F53
:1013200000000000E03F00000000E03F000000007F
:10133000E03F00000000E03F00000000E03F000050
:101340000000E03F00000000E03F00000000E03F40
:1013500000000000E03F00000000E03F000000004F
:10136000E03F00000000E03F00000000E03F000020
:101370000000E03F00000000E03F00000000E03F10
:1013800000000000E03F00000000E03F000000001F
:10139000E03F00000000E03F00000000E03F0000F0
:1013A0000000E03F00000000E03F00000000E03FE0
:1013B00000000000E03F00000000E03F00000000EF
:1013C000E03F00000000E03F00000000E03F0000C0
:1013D0000000E03F00000000E03F00000000E03FB0
:1013E00000000000FC3F00000000FE3F0000000085
:1013F000FE3F00000000FF3F00000000FF3F000034
:101400000000FF3F00000000FF3F00000000FF3F22
:1014100000000000FE1F00000000FE1F0000000092
:10142000FC1F0000000000000000000000000000A1
:1014300000000000000000000000000000000000AC
:10144000000000000000000000000000000000009C
:10145000000000000000000000000000000000008C
:10146000000000000000000000000000000000007C
:10147000000000000000000000000000000000006C
:10148000000000000000000000000000000000005C
:10149000000000000000000000000000000000004C
:1014A000000000000000000000000000000000003C
:1014B000000000000000000000000000000000002C
:1014C000000000000000000000000000000000001C
:1014D000000000000000000000000000000000000C
:1014E00000000000000000000000000000000000FC
:1014F00000000000000000000000000000000000EC
:1015000000000000000000000000000000000000DB
:1015100000000000000000000000000000000000CB
:1015200000000000000000000000000000000000BB
:1015300000000000000000000000000000000000AB
:10154000000000000000000000000000000000009B
:10155000000000000000000000000000000000008B
:10156000000000000000000000000000000000007B
:10157000000000000000000000000000000000006B
:10158000000000000000000000000000000000005B
:10159000000000FCFF00000000FCFF00000000FE57
:1015A000FF01000080FFFF03000080FFFF03000039
:1015B00080FFFF03000080FFFF03000080FFFF03A8
:1015C000000080FFFF03000080FFFF03000080FF9A
:1015D000FF03000080FFFF03000080FFFF03000007
:1015E00080FFFF03000080FFFF03000000FEFF01FB
:1015F000000000FEFF01000000FCFF0000000000F2
:1016000000000000000000000000000000000000DA
:1016100000000000000000000000000000000000CA
:1016200000000000000000000000000000000000BA
:1016300000000000000000000000000000000000AA
:1018D0000000000000000000000000000000F0FF19
:1018E000FFFFFF01F0FFFFFFFF01FCFFFFFFFF1FF6
:1018F000FCFFFFFFFF1FFCFFFFFFFF1FFCFFFFFFC1
:10190000FF1FFCFFFFFFFF1FFCFFFFFFFF1FFCFF90
:10191000FFFFFF1FFCFFFFFFFF1FF8FFFFFFFF0799
:10192000F0FFFFFFFF0100000000000000000000CA
:1019300000000000000000000000000000000000A7
:101940000000000000000000000000000000000097
:101950000000000000000000000000000000000087
:101960000000000000000000000000000000000077
:101970000000000000000000000000000000000067
:101980000000000000000000000000000000000057
:101990000000000000000000000000000000000047
:1019A0000000000000000000000000000000000037
:1019B0000000000000000000000000000000000027
:1019C0000000000000000000000000000000000017
:1019D0000000000000000000000000000000000007
:1019E000000000000000E001FC0FFE1F0E1C073885
:1019F0000738033003300330033003300330033043
:101A00000330033003300330073807380E1CFE1F45
:101A1000FC0FE001000600078007C007E007780719
:101A20003C070C0700070007000700070007000736
:101A3000000700070007000700070007000700076E
:101A40000007E003F80FFC1F0E3C0638077000701B
:101A50000070003000300018001C000E00078003EA
:101A6000C001600038001C000E00FE7FFF7FFF7F7A
:101A7000C003F80FFC3F1E3806700770007000307E
:101A80000038800FC00F403E0070006000600060B2
:101A90000060076006700E78FC3FF80FC003001866
:101AA000001C001E001E001F801F801DC01CE01CAB
:101AB000701C301C181C1C1C0E1C061CFF7FFF7F9A
:101AC000FF7F001C001C001C001C001CFC7FFC7F16
:101AD000FC7F0C000C000E000E00C603F61FFE3F3C
:101AE0000E780770006000600060006000600760B2
:101AF00006700E38FC3FF80FC0038007F01FF83F58
:101B00003C701C600E60060006008607E71FF73F6A
:101B10001F780F70076007600660066006600E7031
:101B20001C78F83FF01FC003FF7FFF7FFF7F00306E
:101B30000018000C000E0006000380038001C001A5
:101B4000C000C000E0006000700070003000300095
:101B5000300038003800C003F80FFC3F1C380E700E
:101B60000E700E700C301C38F81FF00FF81F1E3866
:101B70000E70076007600760076006701E78FC3F04
:101B8000F81FC003C003F80FFC1F1E380E7006605C
:101B900007600760076007600E701E78FC6FF867CB
:101BA000E06100600060077006300E38FC1FF80F1F
:101BB000E001000000000000000000000000000044
:101BC0000000000000000000000000000000000015
:101BD000000000000000000000001C001C001C00B1
:101BE00000000000000000000000000000000000F5
:101BF00000000000000000000000000000000000E5
:101C000000000000000000000000000000000000D4
:101C100000000000000000000000000000000000C4
:101C200000000000FC3F0000000000000000000079
:101C300000000000000000000000000000000000A4
:101C40000000002020202020002050500000000034
:101C5000005050F850F850502078A070283020C024
:101C6000C8102040981840A040A090887010102004
:101C700000000000204040404040201008080808B4
:101C80000810008850F8508800002020F82020001C
:101C900000000000404080000000F800000000004C
:101CA000000000C0C000081020408000708898A884
:101CB000C888702060202020207070080870808004
:101CC000F8F00808700808F008182848F80808F81C
:101CD0008080F0088870708080F0888870F808082C
:101CE000102040807088887088887070888878108C
:101CF00020400000606000606000006060002040E4
:101D0000102040804020100000F800F80000402023
:101D1000100810204070880830400040202070F0EB
:101D2000F0F8F8205888F8888888F08888F0888843
:101D3000F070888080808870F08888888888F0F8C3
:101D40008080F08080F8F88080F0808080708880CB
:101D500080988878888888F8888888702020202053
:101D60002070F81010109090608890A0C0A090880B
:101D7000808080808080F888D8A88888888888C8F3
:101D8000A89888888870888888888870F08888F003
:101D900080808070888888A89878F08888F0A090E3
:101DA00088788080700808F0F82020202020208883
:101DB000888888888870888888888850208888885B
:101DC00088A8D8888888502050888888888850209B
:101DD0002020F80810204080F8E08080808080E09B
:101DE00000804020100800380808080808382050F3
:101DF0008800000000000000000000F8101008003B
:101E0000000000000070888898688080F0888888CA
:101E1000F0000078808080780808788888887800CA
:101E2000007088F880781028702020202000007032
:101E3000887808708080F08888888820002020209A
:101E400020202000202020A04080808890A0D088E2
:101E5000202020202020200000D0A8A8A8A8000032
:101E6000B0C8888888000070888888700000F08872
:101E7000F08080000078887808080000B0C8808072
:101E800080000078807008F0202070202020300032
:101E9000008888889868000088888850200000881A
:101EA00088A8A8500000885020508800008888F832
:101EB00008700000F8102040F8204040804040208A
:101EC000202020002020202010100810102050A0DA
:101ED0000000000000000000000000000000000002
:101EE00000000000000000000000000000000000F2
:101EF00000000000000000000000000000000000E2
:101F000000000000000000000000000000000000D1
:101F100000000000000000000000000000000000C1
:101F2000000000000000000000000000506C65612F
:101F3000736520726573657420746865204C434432
:101F400061736800546F75636873637265656E20B2
:101F5000686173206265656E207265736574004EFA
:101F60006F6E65004D5048004B50480046617265E9
:101F70006E0043656C6369757300505349004B50A4
:101F80004100546170204D656E752D3E4761756747
:101F9000652053657474696E67732D3E4368616E86
:101FA0006765204761756765730044696769746197
:101FB0006C20476175676500426F74746F6D2042D5
:101FC000617220476175676500546F7020426172CD
:101FD0002047617567650053636F706520476175C1
:101FE000676500416E616C6F6720476175676500CA
:101FF00053636F706520476175676500426F747445
:102000006F6D20476175676500546F702044696784
:102010006974616C20476175676500426F74746F05
:102020006D20426172204761756765004D69646487
:102030006C652042617220476175676500546F705E
:102040002042617220476175676500426F74746F4A
:102050006D2042617220476175676500546F702082
:102060004261722047617567650053636F70652038
:1020700047617567652C20426F74746F6D00536300
:102080006F70652047617567652C20546F70004242
:102090006F74746F6D2D526967687420476175673E
:1020A0006500546F702D52696768742047617567C9
:1020B0006500426F74746F6D2D4C656674204761C6
:1020C00075676500546F702D4C65667420446967B0
:1020D0006974616C20476175676500416E616C6F62
:1020E0006720476175676500426F74746F6D2042A9
:1020F000617220476175676500546F70204261729C
:1021000020476175676500546F7020446967697482
:10211000616C20476175676500426F74746F6D2054
:102120004469676974616C204761756765000000E8
:10213000000000C0DA45000000000652504D0000CB
:1021400000000000000000000000000000C8420085
:102150000070430000000016436F6F6C616E7400E6
:10216000000000000000040400002041000098412D
:10217000000000001C414652310000000000000039
:102180000000000000000020410000984100000015
:10219000001E414652320000000000000000000016
:1021A00000000000000000007A4300000000124D13
:1021B000415000000000000000000000000101008C
:1021C0000000000000F0410000000008416476615A
:1021D0006E636500000000000000000000000000C9
:1021E0000000164300000000144169722054656D20
:1021F00070000000000000040400004842000016C7
:1022000043000000002245474F20636F72726563F0
:102210007420310000000000484200001643000016
:1022200000002445474F20636F727265637420324B
:102230000000000000204200004843000000004869
:10224000454145204675656C20436F727200000061
:10225000000000000000CC41000000000250756C3E
:102260007365205769647468203100000000000025
:10227000000000CC41000000000450756C73652024
:1022800057696474682032000000000000000000FC
:102290002041000000003E4477656C6C00000000A7
:1022A00000000000000000000000000000C8420024
:1022B000000000185450530000000000000000000F
:1022C000000000000000484200001643000000002B
:1022D0002647616972000000000000000000000055
:1022E0000000004842000016430000000028477725
:1022F00061726D000000000000000000000000009E
:10230000484200001643000000002E476261726FD1
:102310000000000000000000000000000048420033
:10232000001643000000003047616D6D61650000DC
:102330000000000000000000000000000000F0426B
:102340000000000032477665000000000000000039
:102350000000000101000000000000F04200000049
:1023600000344776653200000000000000000000E5
:102370000101000000000000344300000000C856C6
:10238000656869636C6520537065656400050500C8
:102390000000000050434700000000C9565353207E
:1023A00050504D0000000000000005050000000036
:1023B0000000164300000000CA4F696C205072658F
:1023C0007373757265000002020000000000C0DA3D
:1023D00045000000003C52504D000000000000008D
:1023E0000000000000000000C84200007043000030
:1023F00000003F436F6F6C616E74000000000000CE
:102400000004040000204100009841000000003D4D
:1024100041465231000000000000000000000000B2
:102420000000204100009841000000005641465243
:10243000320000000000000000000000000000006A
:102440000000007A43000000003E4D4150000000B3
:10245000000000000000000001010000000000007A
:10246000F0410000000042416476616E6365000047
:102470000000000000000000000000000016430003
:10248000000000414169722054656D700000000039
:102490000000040400004842000016430000000051
:1024A0004845474F20636F727265637420310000A6
:1024B0000000004842000016430000000054454759
:1024C0004F20636F72726563742032000000000059
:1024D00020C20000F04100000000445661637575A1
:1024E0006D2F426F6F737400000202000000000045
:1024F00000CC41000000004A50756C73652057699C
:102500006474682031000000000000000000CC412D
:10251000000000004B50756C736520576964746847
:1025200020320000000000000000003443000000E2
:1025300000C856656869636C652053706565640002
:102540000505000000000050434700000000C95688
:1025500053532050504D00000000000000000000C8
:102560000000000000164300000000CA4F696C2004
:1025700050726573737572650000020200000000FE
:102580000000C84200000000407468726F74746CF0
:102590006500000000000000004E6F7420656E6F43
:1025A0007567682062797465732066726F6D20703C
:1025B0006167650000009801610143012F0120015E
:1025C00014010A010201FB00F400EE00E900E4003E
:1025D000E000DC00D800D400D100CE00CB00C80061
:1025E000C500C200C000BE00BB00B900B700B50006
:1025F000B300B100AF00AE00AC00AA00A800A70075
:10260000A500A400A200A1009F009E009D009B00C9
:102610009A0099009800960095009400930092000B
:1026200091008F008E008D008C008B008A00890045
:102630008800870086008500840083008200820075
:10264000810080007F007E007D007C007B007B009D
:102650007A007900780077007600760075007400C3
:10266000730073007200710070006F006F006E00E5
:102670006D006D006C006B006A006A006900680004
:102680006700670066006500650064006300630022
:1026900062006100610060005F005F005E005D003D
:1026A0005D005C005B005B005A0059005900580057
:1026B0005700570056005500550054005300530072
:1026C000520051005100500050004F004E004E008B
:1026D0004D004C004C004B004A004A0049004800A5
:1026E00048004700460046004500450044004300BE
:1026F000430042004100410040003F003F003E00D7
:102700003D003D003C003B003A003A0039003800F3
:10271000380037003600360035003400330033000F
:1027200032003100310030002F002E002E002D002D
:102730002C002B002A002A00290028002700260050
:1027400026002500240023002200210020001F0075
:102750001F001E001D001C001B001A00190018009D
:1027600017001600150014001200110010000F00D1
:102770000E000D000B000A0009000700060004000F
:10278000030001000000FEFFFCFFFBFFF9FFF7FF65
:10279000F5FFF3FFF1FFEEFFECFFE9FFE6FFE3FFDC
:1027A000E0FFDCFFD8FFD3FFCDFFC6FFBEFFB3FFC6
:1027B000A0FF0000640A0B0C0D0E0F101112131471
:1027C00015161718191A1B1C1D1E1F202122232441
:1027D00025262728292A2B2C2D2E2F303132333431
:1027E00035363738393A3B3B3C3D3E3F404142432A
:1027F0004445464748494A4B4C4D4E4F5051525321
:102800005455565758595A5B5C5D5E5F6061626310
:102810006465666768696A6B6C6D6E6E6F70717205
:10282000737475767778797A7B7C7D7E7F80818200
:10283000838485868788898A8B8C8D8E8F909192F0
:10284000939495969798999A9B9C9D9E9FA0A0A1E2
:10285000A2A3A4A5A6A7A8A9AAABACADAEAFB0B1E0
:10286000B2B3B4B5B6B7B8B9BABBBCBDBEBFC0C1D0
:10287000C2C3C4C5C6C7C8C9CACBCCCDCECFD0D1C0
:10288000D2D2D3D4D5D6D7D8D9DADBDCDDDEDFE0BF
:10289000E1E2E3E4E5E6E7E8E9EAEBECEDEEEFF0B0
:1028A000F1F2F3F4F5F6F7F8F9FAFBFCFDFEFFFFA1
:1028B000FFFFFFF00A0C0910078A064F061406FCFA
:1028C00005E905D805CC05C005BE05BE05BE05BE9B
:1028D00005BE05BE05BE05BE05BE05BE05BE05BEE0
:1028E00005BE05BE05BE05BE05BE05BE05BE05BED0
:1028F00005BE05BE05BE05BE05BE05BE05BE05BEC0
:1029000005B505A9059C0590055F051D05C504B71E
:1029100003F401F101EF01ED01EA01E801E501E352
:1029200001E101DE01DC01D901D701D501D201D0DD
:1029300001CD01CB01C901C601C401C101BF01BD67
:1029400001BA01B801B501B301B101AE01AC01A9F1
:1029500001A701A501A201A0019E019B0199019679
:1029600001940192018F018D018A01880186018302
:102970000181017E017C017A01770175017201708C
:10298000016E016B0169016601640162015F015D15
:10299000015A0158015601530151014E014C014A9F
:1029A0000147014501420140013E013B0139013629
:1029B00001340132012F012D012A012801260123B2
:1029C0000121011E011C011A01170115011201103C
:1029D000010E010B010901070104010201FF00FDC5
:1029E00000FB00F800F600F300F100EF00EC00EA55
:1029F00000E700E500E300E000DE00DB00D900D7DF
:102A000000D400D200CF00CD00CB00C800C600C368
:102A100000C100BF00BC00BA00B700B500B300B0F1
:102A200000AE00AB00A900A700A400A2009F009D7B
:102A3000009B0098009600930091008F008C008A04
:102A40000087008500830080007E007B007900778E
:102A500000740072006F006D006B00680066006417
:102A60000061005F005C005A0058005500530050A0
:102A7000004E004C00490047004400420040003D29
:102A8000003B0038003600340031002F002C002AB3
:102A90000028002500230020001E001C001900173C
:102AA000001400120010000D000B000800060004C6
:102AB0000001004E6F204F322053656E736F72001D
:102AC00041454D204C696E65617200494E4E4F562E
:102AD000415445204C43312044656661756C740057
:102AE000494E4E4F5641544520302D35204C696E8D
:102AF00065617200494E4E4F5641544520312D328A
:102B0000204C696E65617200544543484544474511
:102B10005F4C494E4541520044594E4F4A45545F1F
:102B20004C494E4541520057425F315F305F4C493E
:102B30004E454152004E6172726F772042616E6461
:102B4000004F787967656E2053656E736F7200432E
:102B5000686F6F73650053656C6563742061204D09
:102B600041502053656E736F723A0053656C656314
:102B70007420616E20496E74616B6520416972201A
:102B800054656D702053656E736F723A0053656CB7
:102B9000656374206120436F6F6C616E74205365B0
:102BA0006E736F723A00001800003C00003C000099
:102BB0003C00003C00003C00003C00003C00003CAD
:102BC00000FEFF7FFFFFFFFFFFFFFEFF7F003C00D7
:102BD000003C00003C00003C00003C00003C0000C9
:102BE0003C00003C00003C00003C00001800FEFFE0
:102BF0007FFFFFFFFFFFFFFEFF7FFFFFFFFFFFFFE6
:102C0000FF3F010000000000005001000000000034
:102C10000090010000000000009001000000000092
:102C200000900100000000000090FD0F8000F8F40B
:102C3000E3933118C0000CC7C0903130C00102C608
:102C400020903130A00103C610903130208301C4A0
:102C500008903118208301C00490F10F108301C047
:102C600007903138108601C00E903170F88701C08E
:102C70001C903160088601C038903160040C03C498
:102C800070903160040C03C2E0903130061C0EC11C
:102C9000C091FD1F0F3EF8F0E3930100000000001B
:102CA0000090010000000000009001000000000002
:102CB00000900100000000000090010000000000F2
:102CC0000090FFFFFFFFFFFFFF9F010000000000DB
:102CD00000A002000000000000C0FCFFFFFFFFFF9B
:102CE000FFFFFFFFFFFFFFFFFF3F010000000000AD
:102CF00000500100000000000090010000000000F2
:102D000000900100000000000090F1FFF8E3F7FBE5
:102D1000FF91C1C0E080C1188691C180C080C00809
:102D20000691C1808041C0080691C1008023C00087
:102D30000690C1200013C0000690C1200016C000FC
:102D40000690C13F000CC0000690C120000CC000DE
:102D50000690C120001AC0000690C1000032C000D9
:102D60000690C1000031C0000690C1008160C00023
:102D70000690C180C0C0C0000690C1C060C0C10044
:102D80000690F1FFF8F0F7831F90010000000000AB
:102D90000090010000000000009001000000000011
:102DA00000900100000000000090FFFFFFFFFFFF08
:102DB000FF9F01000000000000A0020000000000D2
:102DC00000C0FCFFFFFFFFFFFFFFFFFFFFFFFFFF54
:102DD000FF7F01000000000000A0F1FFFCF1F3F311
:102DE000FFA3C1C030C0C0300CA3C1806040C01080
:102DF0000CA2C100C020C0100CA2C1208011C000D4
:102E00000CA0C120000BC0000CA0C13F0006C000F8
:102E10000CA0C1200006C0000CA0C120000DC00005
:102E20000CA0C1008018C0000CA0C1004030C00040
:102E30000CA0C1806060C0000CA0C1C030C0C00048
:102E40000CA0F1FF7CF8F3033FA00100000000009C
:102E500000A0FFFFFFFFFFFFFFFF010000000000D9
:102E600000C0FEFFFFFFFFFFFFFF000000000000AB
:102E70000000000000000000000000000000000052
:102E80000000000000000000000000000000000042
:102E9000000000000F000000000000000000000023
:102EA00000000000000000F0F00000000000000042
:102EB0000000000000000C000000000800010000FD
:102EC000F00400000000801700420C000000000623
:102ED000004600000C0700000000C018006300005E
:102EE000000000010028000006040000000060103F
:102EF0000063000000008000001000000284E71C56
:102F00000F1C60109CFFCD0E0F2E4000002800000B
:102F100003C0CC987926C0012663EE997931200050
:102F20000044000083DFCC98316380076363CC9852
:102F300031212000004200000306CE98317F001EA0
:102F40007F63CC9831071000008100000386CD1804
:102F5000330300380363CC18331E100000810000D7
:102F600007C6CC181F0320300363CC181F38080095
:102F70008000010006C6CC98004760304763CC98BB
:102F800000210800400001001CC6CCBC3F3EE018F8
:102F90003E6BCD983F23040020000200F0839F1B6E
:102FA0007F1C200F1CE7FE3D7F1D04001000020067
:102FB000000000804000000000000080400004008D
:102FC0000800020000000040400000000000004037
:102FD0004000000004000000000000C020000000CD
:102FE000000000C020000000000000000000008081
:102FF0001F000000000000801F0000000000000013
:1030000000000000000000000000000000000000C0
:10301000000000000000000000000000F01F0000A1
:103020000000000000000EE000000000000000C0F2
:103030000100070000000000003000001800000040
:103040000000000800002000000000000006000052
:10305000C0000000000000010000080100000000A6
:10306000800000000802000000004000000004048E
:103070000000000020000000040800000000100014
:103080000000021000000000080000000220000004
:103090000000080000000120000000000400000003
:1030A00001400000000002000080008000000000DD
:1030B00002000080008000000000010000400000CD
:1030C00001000080000000400000020000800000BD
:1030D000002000000200008000000020000002002C
:1030E000004000000010000004000040000000103C
:1030F0000000040000400000000800000400004040
:10310000000000080000040000200000000400008F
:10311000080000200000000400000800002000005B
:1031200000010000080000200000800200000800EC
:10313000000000000001000000000000000000008E
:10314000000000000000000000000000000000007F
:10315000000000000000000000000000000000006F
:103160000000000000000000000000005C00000003
:10317000E0020004000062000000100344000000B0
:103180004100000010024400000001CC8CCF6060C0
:10319000EEA4E173E1924824819144761249419C66
:1031A00048E401F244241219419288231012442465
:1031B000E26042925C203192542512483C3CCBC7DD
:1031C000D061CC7EF73900004008000000001002FA
:1031D000000040080000000010020000800700000E
:1031E0000000E001FFFFFFFFFFFFFFFFFFFFFFFF0A
:1031F000FF3F010000000000000000000000005040
:10320000010000000000000000000000009001002C
:10321000000000000000000000000090010000001D
:10322000000000000000000000900100000000000D
:1032300000000000000000900100000000000000FD
:103240000000000000900100BC000000007E0000B3
:10325000000000900100C200000000880000000093
:1032600000900100810000000008010000000090B3
:1032700001800000000000080100000000900180B3
:103280000038333E0788E068F81C00900180E04574
:1032900022910878109D4422009001808060229144
:1032A0000F488089443E0090018080582291008818
:1032B00060894402009001008144228E00881089B8
:1032C000380200900100826472810808918904220A
:1032D000009001007CDC2C1F073E76DF7D1C0090F7
:1032E000010000008020000000008200009001002A
:1032F000000080200000000082000090010000001B
:10330000001F000000007C00009001000000000091
:10331000000000000000009001000000000000001C
:10332000000000000090010000000000000000000C
:1033300000000090010000000000000000000000FC
:103340000090FFFFFFFFFFFFFFFFFFFFFFFFFF9F5B
:1033500001000000000000000000000000A00200CA
:103360000000000000000000000000C0FCFFFFFFA4
:10337000FFFFFFFFFFFFFFFFFFFFFFFFFFFFFFFF5D
:10338000FFFFFFFFFFFFFF3F010000000000000004
:1033900000000000005001000000000000000000DC
:1033A000000000900100000000000000000000008C
:1033B00000900100000000000000000000000090EC
:1033C000010000000000000000000000009001006B
:1033D00000000000000000000000009081170000C5
:1033E00000C0070000000400009041180000000029
:1033F000010000000000009021100000000001000A
:10340000004000000090110000000000010000409A
:1034100000000090110067C6E700010C0EE785A1CF
:10342000E19011BC48241201011291484672929019
:1034300011104C24F2010121014C2424129011108E
:103440004B2412000121014B24246290219048C496
:103450001100412181482424829041904C2E10017A
:103460002112914C45229290818F9BE5E3C03F0C45
:103470008EDB8E71779001000010040000000000C8
:103480000000009001000010040000000000000097
:103490000090010000E00300000000000000009028
:1034A000010000000000000000000000009001008A
:1034B000000000000000000000000090010000007B
:1034C000000000000000000000900100000000006B
:1034D0000000000000000090FFFFFFFFFFFFFFFF64
:1034E000FFFFFFFFFF9F0100000000000000000041
:1034F000000000A00200000000000000000000002A
:1035000000C0FCFFFFFFFFFFFFFFFFFFFFFFFFFF0C
:10351000007C00000000000000000000000000002F
:1035200000000000000080C7030000000000000051
:1035300000000000000000000000000040820400C5
:10354000000000000000000000000000000000007B
:103550000000300119000000000000000000000021
:103560000000000000000000080121000000000031
:103570000000000000000000000000000000080142
:10358000210000000000000000000000000000001A
:1035900000000000043941000000000000000000AD
:1035A0000038000000000006000082C783002F00E2
:1035B00000080000003F006400000000200600003A
:1035C000F2009E803100000C0000000C000600009C
:1035D0000000300000008E00E2C02000000C00005F
:1035E000000C00060000000030000000830082C1D3
:1035F000A0CFB93E8E9D038C9D1F0FDBCEE1F986D7
:10360000871D810002810386C40CD37306CC3386E8
:1036100099F7393333C7CC33810002010F86848C8C
:10362000B131068C31C630C318333366983181000E
:1036300002013C4C1C8CBF31068C31C630C3188350
:103640003366983181000201704C788C8131068C90
:1036500031C630C3186333669831830082416038C5
:10366000E08C8131068C31C630C318333366983113
:103670008E00E2C06038848CA331068C31C630C322
:10368000183333669831F2009EC031308C2C9F3154
:10369000068C318619C31833B3C68C3182C7834078
:1036A0001E10741CCE7B0FFFFB1F8FE7BDE7778FCB
:1036B000C77B04394100001000000000000000003A
:1036C00000000000000000000801210000080000C8
:1036D00000000000000000000000000000000801E1
:1036E0002100000F000000000000000000000000AA
:1036F0000000000030011900000700000000000079
:1037000000000000000000000000408204000000F3
:1037100000000000000000000000000000000000A9
:1037200080C703000000000000000000000000004F
:10373000000000000000007C00000000000000000D
:103740000000000000000000000000000000000079
:10375000000000000000000000000000001C00004D
:10376000000000000000001E00000000000000003B
:10377000000F0000000000000000800400000000B6
:1037800000000000400200000000000000002001D6
:103790000000000000000000900000000000000099
:1037A00000004800000000000000000027000000AA
:1037B000000000000080170000000000000000C0B2
:1037C0000F00000000F00F0000E00F0000000008F4
:1037D000300000F0070000000004400000F807007F
:1037E00000000008800000FC03000000003000FF23
:1037F000FFFFFFFF0F0000C0030000FF00003000CC
:1038000000000400807F0000200000000800C03F8E
:103810000000400000000800E01F00004000000021
:103820000400F00F0000200000C00300F8070000B3
:103830003000003000FFFFFFFFFF0F000008800096
:10384000FE010000000000044000FF000000000036
:10385000000830807F000000000000F00FC03F0033
:1038600000000000000000E01F0000000000000059
:1038700000F00F0000000000000000F00700000052
:103880000000000000F8030000000000000000F845
:10389000010000000000000000F000000000000037
:1038A00000000060000000000000000000000000B8
:1038B0000000000000000000000000000000000008
:1038C000F007000800000000000090040000000065
:1038D0000000000080000000C007000000008030F1
:1038E000D34823020000000080203AED24020000AB
:1038F000000080201249C40100000000802012490D
:1039000024000000000080201749E40300000000AC
:10391000C0C1BAFF2E040000000000000000200417
:103920000000000000000000C003000000000000D4
:1039300000000000000000000000E00300000000A4
:1039400000000000BE3E000000000000000099C81A
:103950000000000000000080841001000000000052
:103960000070822006000000000000088220040091
:103970000000000000048220080000000000000495
:1039800082200800000000000003814010000000B9
:103990000000000381406000000000008000F1434F
:1039A00080000000000080008944800000000000CA
:1039B0008080877880000000000080F08080830095
:1039C00000000000808C80008D0000000000C0839B
:1039D0008000F10000000000608080008101000094
:1039E000000020808000010100000000E0FFFFFFD8
:1039F000FF010000000020808000010100000000A5
:103A000060808000010100000000C083800081010F
:103A100000000000808C8000F9000000000080F0B1
:103A20008000870000000000800081E0810000002D
:103A30000000800083208100000000008000FD9FC6
:103A400080000000000000018140400000000000F4
:103A5000000381403000000000000002814010009F
:103A600000000000000482200800000000000008A0
:103A70008220040000000000007882200600000080
:103A8000000000808410010000000000000099C8C0
:103A90000000000000000000BE3E0000000000002A
:103AA0000000E003000000000017000000000EC04E
:103AB0000100801800100000042001008010001098
:103AC00000000420000000C39D3B460B44F31C0093
:103AD000008C4812E916E42422000090C4104F1212
:103AE0004424220080100513411244242200801136
:103AF0004552491244242200800EC231E636EE7E41
:103B00001C00000002000000000000000000010096
:103B100000000000000000C00100000000000000E4
:103B2000F0FFFF7F00000000000000000000000028
:103B30000000000010000040000000000000000035
:103B40000000000000000000100000400000000025
:103B50000000000000000000000000001000004015
:103B60000000000000000000000000C00000000095
:103B700090FFFF4F8017000004000000780120C470
:103B80000000000090000048C0180000060000007F
:103B90008C0130060000000090000048601000001A
:103BA00006000000060130060000000090000048FA
:103BB00060D0E75C1FC7CE0106C1F9DFECF0E00280
:103BC00090000048C001436286E939031C6032E678
:103BD0009E9917039000004880074342C6D81803F7
:103BE000783036C68C19130290000048001E260E4D
:103BF000C6DF1803E0F137C68C1973009000004847
:103C00000038263CC6C01803803330C68C31E3012F
:103C10009000004820301C70C6C01803023330C624
:103C20008CF181039000004860301C42C6D118031B
:103C3000067334C68C09100290000048E01818463C
:103C400096CF18038EE1B3D68CF9330290FFFF4F65
:103C5000200F083A0EE7BD07F2C071EEDFF3D7017F
:103C600010000040000008000000000000000000FC
:103C700000080400100000400000040000000000E4
:103C80000000000000040400100000400080070055
:103C90000000000000000000000C0200F0FFFF7FA9
:103CA00000800300000000000000000000F8010098
:103CB00000000000000600000000000000000000FE
:103CC000000000000F0000000000000000000000E5
:103CD0000000800E00000000000000000000000056
:103CE0000040040000000000000000000000000090
:103CF0002002000000000000000000000000001092
:103D0000010000000000000000000000000088002A
:103D1000000000000000180000FC0100005E000030
:103D200000F0FF0000180000020600003F00000045
:103D300030C60000000000010800801F00000010D5
:103D40008600000000000EF0FFFFFFFF3F000006AE
:103D5000E7EC981D1E700000F00F00C0000006C6C2
:103D60009EDD33F3800000F8070080000006C68C5B
:103D7000993163000100FC030000010006C68C9924
:103D80003163800000FF000080000006C68C99317E
:103D9000667000807F0000C0000006C68C99313E2E
:103DA0000EF0FFFFFFFF3F000006C68C99310101B6
:103DB00008E00F000000000006E68D99317F020642
:103DC000F00700000000801FDCDEFF7BFEFC01F836
:103DD0000300000000000000000000810000FC0063
:103DE000000000000000000000808000007E000055
:103DF0000000000000000000804100003F000000C3
:103E000000000000000000003F00001E0000000055
:103E1000000000000000000000000C000000000096
:103E20000000000000000000000000000000000092
:103E30000000000000000000000000000000000082
:103E40000000000000000000000000000000000072
:103E50000000000000000000000000000000000062
:103E60000000000000000000000000000000000052
:103E70000000000000000000000000000000000042
:103E80000000000000000000000000000000000032
:103E90000000000000000000000000000000000022
:103EA0000000000000000000000000000000000012
:103EB000000000000000000000000000000000E81A
:103EC00007000000000000000000000000000000EB
:103ED000000000003C08000000000000000000009E
:103EE000000000000000000000A61100000000001B
:103EF0000000000000000000000000000000C122DF
:103F0000004E0000000000007002000000000000F1
:103F100000008080270073000000000000980380EC
:103F200000000080F1000000E0238061000000003C
:103F300000000C0380000000A03F1C0040FE3F80FA
:103F4000410000000000000C02C0000000900220B0
:103F5000FF7F1E00804370D8E1C2C30E1C82E39F26
:103F6000B30350020000001E00000F983C1363E6EC
:103F70000D78C0C4187B06D0520400001C00003C21
:103F80008C191332CC00E061CC18330C0008F4001B
:103F9000001E000070FC197330CC0080E3CF183392
:103FA0000C20FCFFFF7F1E0080E00C18E331CC00EA
:103FB0000467C018330CE000002000380080C00CFB
:103FC000188333CC000466C018330CC0FFFFDFFF3A
:103FD000C03F80C11C191332CC000CE6C818330C4A
:103FE000806000008006208063F8183362C6001CE1
:103FF000C3C79A7706009C0000003530803C70BC37
:10400000D7C1E301E481C371B30300300000005B5A
:104010001800000000000000000000000030000058
:1040200000000000B60C00000000000000000000CE
:104030000000300000000000001C04000000000030
:104040000000000000000030000000000000F0034D
:1040500000000000000000000000000078000000E8
:104060000000000000000000000000000000000050
:104070000000000000000000000000000000000040
:104080000000000000000000000000000000000030
:104090000000000000000000000000000000000020
:1040A0000000000000000000000000000000000010
:1040B0000000000000000000000000000000000000
:1040C000000000FC80000000000000000000000074
:1040D0000000000000FC8000000000000000000064
:1040E00000000000000000FC800000000000000054
:1040F000000000000000000000FC80000000000044
:104100000000000000000000000000FC8000000033
:1041100000000000000000000000000000FC800023
:10412000000000003E01F0DC030000200E0000FC57
:10413000800000000080C301E09C030000200E000E
:1041400000FC800700C001C08101E0800300003056
:10415000000000FCC008002002C000E1E39E1BEF4D
:10416000F8FC0F8F77FCA010002004E00018E79CFB
:1041700037DEC6398E19EFFCA020001000E00038B1
:10418000E79C73CECE39CE39E7FC9040001000E0BA
:104190000038E79C730ECE39CE39E7FC88800008E2
:1041A00000E000C0E79C730EF039CE39E7FCFEFF5B
:1041B000FFFF01E00070E79C730EDC39CE39E7FCAD
:1041C0008400010400C00139E79C730ECE39CE395A
:1041D000E7FC82000202008083B8E79C330EEEB950
:1041E0008E19E7FC8000840100007F70FFBF1C1F58
:1041F000DC731F8FEFFD80008800000000000000CE
:1042000000000000000000FC8000700000000000C2
:10421000000000000000000000FC80000000000022
:104220000000000000000000000000FCFFFFFFFF96
:104230003F010000005001000000900100000090CC
:10424000C1FFFF7F9041000040904100004090413D
:10425000FEFF4F9041020048904102044890410205
:104260000A489041020448904112004890412A8037
:1042700048904112404990410280489041020048D4
:1042800090410200489041FEFF4F90410000409055
:104290004100004090C1FFFF7F90010000009001AD
:1042A000000000900100000090FFFFFFFF9F010051
:1042B0000000A002000000C0FCFFFFFFFFFFFFFFA7
:1042C000FF3F01000000500100000090F9FFF1FFE6
:1042D0009309001100920906D1FF9289191F0092DB
:1042E00049301100924928D1FF92294411009229A6
:1042F00040110092F9FFF1FF93F9FFF1FF930100E4
:1043000000009001000000900100000090010000FA
:1043100000900100000090010000009001000000EA
:10432000900100000090010000009001000000904A
:1043300001000000900100000090FFFFFFFF9F01BF
:10434000000000A002000000C0FCFFFFFFFFFFFF15
:10435000FFFF3F0100000050010000009001000439
:1043600000900120840090014044009001404E00E4
:1043700090019031019001A0A00090014040009078
:10438000014040009001208000900138800390019E
:10439000208000900140400090014040009001A02A
:1043A000A00090019031019001404E0090014044E6
:1043B00000900120840090010004009001000000A2
:1043C0009001000000900100000090FFFFFFFF9FA0
:1043D00001000000A002000000C0FCFFFFFFFFFF83
:1043E000FFFFFFFF010000008001003E008001C0D0
:1043F000E3018001204102800198800C80018480CB
:104400001080018480108001829C208001C1E341E2
:10441000800179004F800147007180814100C18097
:1044200081400081808140008180814000818081C5
:1044300040008180814100C1800147007180017985
:10444000004F8001C1E3418001829C208001848073
:10445000108001848010800198800C80012041022E
:104460008001C0E3018001003E0080FFFFFFFFFFED
:10447000FFFFFFFFFFFF3F010000000000500100B1
:104480000000000090013F000E0002900142000970
:104490000013900182000100129001829867663A31
:1044A000900182249144129001823CE144129001D7
:1044B00082049144129001422491E45290013F9869
:1044C000E359379001000000000090010000000057
:1044D000009001000000000090010000000000902A
:1044E0000100000000009001000000000090C105E4
:1044F0000008000090210688000000902104880038
:10450000000090C1C0DC49C3E790012389EC2492EC
:104510009001E4894824329021248848C4C19061E4
:1045200024A94A249090A1C398FDEE739001000045
:10453000002004900100000020049001000000C051
:10454000039001000000000090FFFFFFFFFFFF9FAE
:10455000010000000000A0020000000000C0FCFFFD
:10456000FFFFFFFFFF000000000000000000000050
:10457000000000000000000000000000000000003B
:10458000FCFFFFFFFF7F00000000000004000000B0
:104590000040000000000000040000000040000097
:1045A00000000000040000000040000000000000C7
:1045B00004000000004000000000000004000000B3
:1045C000004000000000000084FFFFFFFF430000E8
:1045D0000000000084010000004300000000000013
:1045E000840100000043000000000000840100007E
:1045F00000430000000000008401000000430000B0
:1046000000000000840100000043000000000000E2
:10461000840100000043000000000000840100004D
:10462000004300000000000084010000004300007F
:1046300000000000840100000043000000000000B2
:10464000840100000043000000000000840100001D
:10465000004300000000000084010000004300004F
:104660000000000084010000004300000000000082
:1046700084010000004300000000000084010000ED
:10468000004300000000000084010000004300001F
:104690000000000084010000004300000000000052
:1046A00084010000004300000000000084FFFFFFC1
:1046B000FF43000000000000040000000040000074
:1046C00000000000040000000040000000000000A6
:1046D0000400000000400000000000000400000092
:1046E0000040000000000000040000000040000046
:1046F00000000000FCFFFFFFFF7F00000000000043
:1047000000000000000000000000000000000000A9
:104710000000000000000000000000000000000099
:1047200000C005000000800B001000000020060003
:104730000400400C100100000020040004004008A8
:104740001001000000C070E78ED18281B99386CF3E
:104750000100239244BA054612D9492401002431AC
:10476000C49304C813914864002044C14490444851
:1047700010918883016044915492C4485295482016
:1047800001A083708CB94D8731FBDDE7000080000C
:104790000000000000004008000040000000000091
:1047A00000004008000070000000000000008007CA
:1047B00000000800600803808800809C00086308EF
:1047C0007041078080008080006000033C001E6014
:1047D0000003808000808000704107086308809C8F
:1047E00000808800600803000800FFFFFF3F010011
:1047F0000050010000900100009001FE0F900102A6
:10480000089001020890010208900102089001023C
:104810000890010208900102089001020890F90333
:10482000F893110000912100809041004090810098
:1048300020900101109001020890010404900108E9
:1048400002900110019001A0009001400090010031
:10485000009001000090FFFFFF9F010000A00200F8
:1048600000C0FCFFFFFFFFFFFF3F01000050010001
:1048700000900140009001A00090011001900108FB
:10488000029001040490010208900101109081003F
:104890002090410040902100809011000091F90388
:1048A000F8930102089001020890010208900102A9
:1048B000089001020890010208900102089001028C
:1048C000089001FE0F90010000900100009001008F
:1048D0000090FFFFFF9F010000A0020000C0FCFF4E
:1048E000FFFFFFFFFFFFFF0100000080011FFCFF33
:1048F000BFC1600400A021800400A01100FCFFBF24
:1049000089000000800901FCFFBF05020400A0052A
:10491000040400A00508FCFFBF051000008005008E
:1049200030668C090008919209009893921100A0BA
:1049300064922100A094920100A0949201001C6353
:104940008C0100000080FFFFFFFFFFFFFFFFFFFF64
:10495000FFFFFFFFFFFFFFFFFFFFFFFFFFFFFF0165
:104960000000008001000000800100000080410084
:10497000FE0180B9C1011E800D7300F0FF071E000B
:1049800000800100000080FFFFFFFFFF000000002B
:1049900000FFFFFFFFFF01000000800300001F80F9
:1049A0001D00C0308031003CC080E1070680FF015F
:1049B0003C03008001E0010080FFFFFFFFFF0000DB
:1049C000000000FFFFFFFFFFFFFFFFFFFFFFFFFFF4
:1049D000FFFFFFFFFFFFFF010000008001007E00DE
:1049E0008001E08107800118001880010400208008
:1049F000010300C08081000000814102000082416B
:104A00000400008221080000841110000088112099
:104A10000000880940000090098000009009000112
:104A20000090090002009005000400A00500180095
:104A3000A005002800A00100100080FFFFFFFFFF7D
:104A4000FFFFFFFFFFFFFFFFFFFFFFFFFFFFFF0174
:104A5000000000800100000080FFFFFFFFFFFFFF5C
:104A6000FF3F80FFFFFF7F80FFFFFFFF80FFFFFF13
:104A70007F80FFFFFF3F80FFFFFFFFFF010000007F
:104A8000800100000080FFFFFFFFFFFF7F0000802C
:104A9000FFFF000080FFFF010080FFFF000080FF9C
:104AA0007F000080FFFFFFFFFF010000008001008A
:104AB000000080FFFFFFFFFFFFFFFFFFFFFFFFFF83
:104AC000FFFFFFFFFFFFFF010010008031CC10C38C
:104AD0008C49229124924926917492312811939203
:104AE00049C89194924988909492316710638C01DF
:104AF00000100080FFFFFFFFFF0100100080010099
:104B000010008061CC10638C112291949231279116
:104B1000949241299194924129919492412991949E
:104B20009239C610638C0100100080FFFFFFFFFF69
:104B3000FFFFFFFFFFFFFFFFFFFFFFFFFFFFFF0183
:104B4000000000808103000087610C00C0981110F4
:104B50000020A01100002080090000108009000042
:104B6000D080090200108711011C20809100632071
:104B7000802180804080018002008001400400800C
:104B80000140080080014010008001800000800189
:104B90008000008001000100800100000080FFFF14
:104BA000FFFFFFFFFFFFFFFFFFFFFFFFFFFFFFFF15
:104BB000FFFFFFFFFFFFFF010010008031CC10005E
:104BC000804922110080492611008031281100807F
:104BD00049C81100804988101E8031671033800158
:104BE000009061C0FFFFDF40A001007040B00100F5
:104BF00030409861CC10C0871122110080312711FC
:104C000000804129110080412911008041291100B3
:104C10008039C61000800100100080FFFFFFFFFFF9
:104C2000FFFFFFFFFFFFFFFFFFFFFFFFFFFFFFFF94
:104C3000FFFF1F80FFFFFF3F80FFFFFF1F80FFFF81
:104C4000FFFFFF01000000800100000080FFFFFF68
:104C5000FFFFFFFF010080FFFF030080FFFF010057
:104C600080FFFFFFFFFF01000000800100000080C7
:104C7000FFFFFFFFFFFFFFFFFF8FFFFFFFFF9FFF14
:104C8000FFFFFF8FFFFFFFFFFF010000008001001B
:104C9000000080FFFFFFFFFFFFFFFFFFFFFFFFFFA1
:104CA000FFFFFFFFFFFFFF0100000080011FFCFF6F
:104CB000BFC160FCFFA32180FCFFA31100FCFFBF6C
:104CC00089000000800901FCFFBF0502FC00A0056F
:104CD00004FC00A00508FCFFBF05100000800500D3
:104CE000FCFFBF09000400A00900E481BF11003CE3
:104CF000C3A021000C66A00100043CA00100FCFF41
:104D0000BF0100000080FFFFFFFFFFFFFFFFFFFF6D
:104D1000FFFFFFFFFFFFFFFFFFFFFFFFFFFFFF01A1
:104D2000000000800100000080FFFFFFFFFF010086
:104D3000000080FFFFFFFFFF010000008071F8030B
:104D4000C08771F803C087410002408041000240E3
:104D50008041F803C0874119000084411900008494
:104D60004119C000844119C00084F1F903F08701A2
:104D700000000080FFFFFFFFFF0100000080010036
:104D8000000080FFFFFFFFFFFFFFFFFFFFFFFFFFB0
:104D9000FFFFFFFFFFFFFFFFFF7F0100000000009C
:104DA00000A0FD8F1FFE7F78C0A731180608C3E062
:104DB00000A13130060883C101A13130060883C14A
:104DC00003A131300608834107A131180608C3400A
:104DD00006A1F10F06087F400CA1313806083340C8
:104DE00018A131700608734030A131600608634095
:104DF00060A131600608C340E0A131600C04C341EA
:104E0000C0A131301C06834380A1FD1FF0C10FFFFC
:104E100001A101000000000000A0FFFFFFFFFFFF55
:104E2000FFBF01000000000000C0FEFFFFFFFFFF0A
:104E3000FFFF43616C696272617465004D50480008
:104E400070756C73652F6D696C650043616C696288
:104E50007261746500616E64207072657373207492
:104E60006865202743616C696272617465272062FE
:104E70007574746F6E0044726976652061742033B6
:104E8000304D50480043616C6962726174652074F2
:104E9000686520565353005644415046554C2D5694
:104EA000332E3530004C43446173682D76322E31F9
:104EB00000000080BF0000803F00000000FF4E6F38
:104EC00020476175676500000000000000000000D9
:104ED000000000C0DA45000000000C52504D0000F8
:104EE00000000000000000000000000000000000C2
:104EF000001643000000000D565353000000000050
:104F00000000000000000000000020C10000484236
:104F1000000000000E416476616E636500000000D1
:104F20000000000000000020C20000574300000005
:104F3000000F4D4154000000000000000000000080
:104F400000000000000000C0234400000000104DDD
:104F500041460000000000000000000000000000CA
:104F60000000000000C8420000000011545053002F
:104F70000000000000000000000000000000000031
:104F80000000C8420000000004456E674C6F616479
:104F9000000000000000000000000020C2000057D8
:104FA000430000000005434C5400000000000000D6
:104FB0000000000000000000000000403F4400002E
:104FC00000000A4675656C205072657373757265D2
:104FD0000000000000000000007F43000000000B04
:104FE0004D415000000000000000000000000000E3
:104FF0000000C8C20000C842000000000653542050
:105000004675656C5472696D42310000000000C83D
:10501000C20000C84200000000074C5420467565DD
:105020006C5472696D42310000000000C8C200007B
:10503000C84200000000085354204675656C547245
:10504000696D42320000000000C8C20000C8420082
:10505000000000094C54204675656C5472696D421D
:1050600032000000000080BF0000803F0000000010
:10507000FF4E6F204761756765000000000000006B
:1050800000000000000000C842000000001754505B
:1050900053000000000000000000000007070000AF
:1050A00000000060EA45000000002152504D000061
:1050B00000000000000000000000000000000000F0
:1050C0000096430000000038426F6F7374284D440F
:1050D00050290000000001010000000000001643FC
:1050E000000000001D416363656C456E7269636872
:1050F0000000000707000000000000484200000018
:105100000006416476616E636500000000000000E7
:105110000808000000000000C842000000000E4621
:1051200075656C5472696D5F4C6F770000070700FE
:105130000000000000C842000000000D4675656CCC
:105140005472696D5F4D6564000007070000000040
:105150000000C842000000000C4675656C5472697E
:105160006D5F48690000000707000000000000C8EC
:1051700042000000000F3032204642205472696D18
:10518000000000000707000000000000C842000007
:1051900000001330322053656E736F720000000000
:1051A000000909000000000000C842000000001FC4
:1051B00030322053656E736F7232000000000909AF
:1051C0000000000000003443000000002F5653533D
:1051D00000000000000000000000000505000000C5
:1051E0000000008C430000000007436F6F6C616E8D
:1051F0007454656D7000000004040000000000405D
:10520000CE44000000001A416972466C6F77204856
:105210007A000000000A0A00000000000048430075
:105220000000003A4169722054656D700000000072
:1052300000000404000000000000844200000000A0
:1052400029496E6A20505700000000000000000B42
:105250000B000000000000704100000000144261DB
:105260007474566F6C74730000000000090900002C
:10527000000000007F430000000032414652204DF4
:10528000415000000000000000000000000000008D
:1052900000204300000000004543554C6F6164004E
:1052A0000000000000000101000000000000C843F1
:1052B00000000000014543554C6F6164324200001C
:1052C00000000001010000000000007F430000001A
:1052D000002C416972566F6C756D6500000000000E
:1052E0000000000000000000204300000000154204
:1052F00061726F6D6574657200000000000101004D
:105300000000000000484200000000264B6E6F6362
:105310006B53756D000000000000000000000000ED
:1053200000007F43000000001649534320535445BA
:10533000505300000000000000000000000000C802
:105340004200000000274F6374616E654C6576650E
:105350006C00000007070000000000803B450000D3
:1053600000002454617267657449646C6552504D45
:10537000000000000000000000C8420000000030F3
:105380004B6E6F636B566F6C7473000000000909FD
:105390000000000000009643000000001245475244
:1053A0002054656D7000000000000004040000003F
:1053B000000000484200000000FC4D5047202855E6
:1053C0005329000000000000000000000000000061
:1053D000C84200000000FB496E6A44757479437945
:1053E000636C6500000707000016430000164400C8
:1053F000000000FA457374204850000000000000CF
:105400000000000000002F01290123011D011701E8
:1054100012010D0107010201FD00F800F400EF0088
:10542000EB00E600E200DE00DA00D600D300CF0099
:10543000CC00C800C500C200BF00BC00B900B60067
:10544000B300B100AE00AC00A900A700A500A30006
:10545000A1009F009D009B00990098009600940079
:105460009300910090008E008D008C008A008900CE
:10547000880087008600840083008200810080000D
:105480007F007E007D007C007B007A007900780040
:105490007700760075007400730072007100700070
:1054A0006F006E006D006C006B006A0068006700A2
:1054B000660064006300610060005E005D005B00E8
:1054C0005900580056005400520050004E004B0046
:1054D00049004700440042003F003D003A003700C9
:1054E000340031002E002A002700230020001C0079
:1054F0001800140010000C0008000300FFFFFAFF62
:10550000F5FFF0FFEBFFE6FFE1FFDBFFD5FFD0FF8C
:10551000CAFFC3FF00000000480141013A01330106
:105520002C0125011F01190113010E0108010301BE
:10553000FE00F900F400F000EB00E700E300DF00FC
:10554000DB00D800D400D100CD00CA00C700C400E1
:10555000C100BF00BC00B900B700B400B200B00089
:10556000AE00AC00A900A800A600A400A200A00004
:105570009E009D009B009A00980097009500940063
:105580009200910090008E008D008C008A008900AE
:1055900088008700860085008300820081008000EB
:1055A0007F007E007D007C007B007A00790078001F
:1055B000770076007500740073007200710070004F
:1055C0006F006E006D006C006B006A00690068007F
:1055D00067006600650064006300620061006000AF
:1055E0005F005F005E005D005C005B005A005900D8
:1055F0005800580057005600550054005300520000
:105600005200510050004F004E004E004D004C0023
:105610004B004B004A004900480047004700460045
:105620004500450044004300420042004100400064
:105630003F003F003E003D003C003C003B003A0084
:1056400039003800370037003600350034003300A9
:105650003200310030002F002E002D002B002A00D8
:1056600029002700260025002300220020001E001C
:105670001C001B00190017001400120010000E007F
:105680000B000800060003000000FDFFFAFFF6FF14
:10569000F3FFEFFFEBFFE7FFE3FFDFFFDAFFD5FFED
:1056A000D0FFCBFFC6FFC1FF00407A10F35A00A025
:1056B000724E18090010A5D4E80000E876481700DB
:1056C00000E40B54020000CA9A3B000000E1F5051B
:1056D000000080969800000040420F000000A08665
:1056E00001000000102700000000E8030000000097
:1056F0006400000000000A0000000000010000003B
:1057000000002C76D888DC674F0823DFC1DFAE5954
:10571000E1B1B796E5E3E453C63AE651997696E8E7
:10572000E6C28426EB898C9B62ED407C6FFCEFBC6B
:105730009C9F40F2BAA56FA5F490055A2AF75C9396
:105740006B6CF9676DC11BFCE0E40D47FEF520E6CC
:10575000B500D0ED902E0300943577050080841EAF
:10576000080000204E0A000000C80C333333330F0A
:10577000986E12831141EF8D2114893BE65516CFA7
:10578000FEE6DB18D1844B381BF77C1D901DA4BBB3
:10579000E424203284725E228100C9F124ECA1E568
:1057A0003D2711241FBECFEFD1E2DEBFCDBF00E009
:1057B0000CBF18E0A0E0B2E0ECE1F4E201E00BBFC6
:1057C00002C007900D92AE3EB107D9F713E1AEEEDD
:1057D000B8E001C01D92AC33B107E1F70E94A42DDF
:1057E0000C940D920C94000020E030E08091EE08C3
:1057F000813011F421E030E0C90108958091EF0873
:1058000090E008958093EF080895209188003091EA
:105810008900482F552747FD5095CA01820F911DD9
:10582000823D9105A4F480918800909189009A01AD
:10583000280F311D2531310554F080918800909159
:105840008900480F591F5093890040938800209188
:105850008800309189006FEB621B70E080E090E07F
:105860000E94688820E030E040E253E40E94E68E27
:1058700020E030E048EC52E40E947B900895A2E0E2
:10588000B0E00E94EC91802D8B30F9F421E030E003
:10589000D9010E94EC91902D892F85518D3B38F4D0
:1058A000892F90E09093890080938800089588EC78
:1058B00090E0909389008093880080918800909177
:1058C0008900D901082E0E94F991089510921209B9
:1058D000109213098FEE809314098FE780931509B6
:1058E0000E943F2C0895392F841758F0681748F00C
:1058F000351738F080E090E0731728F081E090E0F1
:10590000089580E090E008950F931F93CF93DF9365
:105910000E94233E61E070E081E090E00E94BA3D89
:105920008823C1F780E092E00E94FA3D68EC70E0C5
:1059300085E090E00E94BA3D0E94AD3DEC0106E09A
:1059400012E0C8010E94FA3D61E070E081E090E061
:105950000E94BA3D88818534A1F761E070E081E062
:1059600090E00E94BA3D8823C1F70E943E3EDF913D
:10597000CF911F910F9108950F931F93CF93DF93B2
:105980000E94233E61E070E081E090E00E94BA3D19
:105990008823C1F789E092E00E94FA3D68EC70E04C
:1059A00085E090E00E94BA3D0E94AD3DEC0106E02A
:1059B00012E0C8010E94FA3D61E070E081E090E0F1
:1059C0000E94BA3D88818534A1F761E070E081E0F2
:1059D00090E00E94BA3D8823C1F70E943E3EDF91CD
:1059E000CF911F910F910895AF92BF92CF92DF9206
:1059F000EF92FF920F931F93CF93DF93CDB7DEB754
:105A0000C95CD0400FB6F894DEBF0FBECDBF5C01BD
:105A1000E62EC62EDD248E010F5F1F4FA601BC01AE
:105A2000C8010E94858B0E94842CFF2490E018C03E
:105A30009F5FF8018081C753DF4F9883C95CD040D6
:105A40000E94F33DC753DF4F9881C95CD04092302C
:105A500021F481E00E94F43A90E0F3940F5F1F4F2D
:105A6000FE1431F70E94BC2CA601BE016F5F7F4F70
:105A7000C5010E94858BC753DF4F0FB6F894DEBF78
:105A80000FBECDBFDF91CF911F910F91FF90EF908F
:105A9000DF90CF90BF90AF9008950E94233E89E0A1
:105AA00092E00E94FA3D64EF71E085E090E00E9490
:105AB000BA3D0E943E3E1092EE0808950E94233E99
:105AC00080E092E00E94FA3D60E971E085E090E0BC
:105AD0000E94BA3D8FE092E00E94FA3D60E971E0D9
:105AE00085E090E00E94BA3D8AE192E00E94FA3D92
:105AF00060E971E085E090E00E94BA3D83E292E0C7
:105B00000E94F73F0E94233E89E092E00E94FA3D06
:105B100064EF71E085E090E00E94BA3D0E943E3E55
:105B200081E08093EE08089580918800909189002B
:105B3000A1E0B0E0082E0E94F9918BE0A2E0B0E075
:105B4000082E0E94F99108958F929F92AF92BF9272
:105B5000CF92DF92EF92FF920F931F93CF93DF9339
:105B6000CDB7DEB723970FB6F894DEBF0FBECDBF1B
:105B700078940E94AC380E94DC3C0E949A3E0E94BD
:105B8000662C0E94F04E0E94A1530E94FE570E9474
:105B9000FE576AE070E081E090E00E94BA3D882301
:105BA000C1F78BE292E00E942D4F0E94A7538823F9
:105BB00031F088E392E00E942D4F81E00DC085E432
:105BC00092E00E942D4F0E942681882351F083E5A8
:105BD00092E00E942D4F82E08093EF080E942038CF
:105BE00016C081E692E00E942D4F0E94A585882371
:105BF00031F08FE692E00E942D4F83E0EDCF1092BE
:105C0000EF080E9420388DE792E00E942D4F81E03E
:105C10008093EF080E942C4A0E94AC448E010F5FD3
:105C20001F4FC8010E94444048012EE9A22E22E0E5
:105C3000B22E9AE8C92E92E0D92E82E0E82EF12CFD
:105C4000EC0EFD1EC4010E9444408C018091EF08BF
:105C5000813039F40E94FE576981C8010E940856BC
:105C600016C0823071F46981C8010E941D820E94B1
:105C70003B80823011F4C60101C0C5010E942D4F46
:105C800006C0833021F46981C8010E942783809176
:105C9000EF08882321F00E94264B0E944D45C70142
:105CA0000E94043B882371F240911209509113091C
:105CB00060911409709115098A819B810E94732C4F
:105CC000882309F4BFCF81E00E94697E8823E1F731
:105CD0000E9420380E94AC44B5CF2F923F924F9241
:105CE0005F926F927F928F929F92AF92BF92CF926C
:105CF000DF92EF92FF920F931F93CF93DF93CDB775
:105D0000DEB7AE970FB6F894DEBF0FBECDBF9AA731
:105D100089A77EA76DA75CA74BA7CB01409698A744
:105D20008FA3FB0160887188828893883896FEA3D0
:105D3000EDA3FC01A480B580C680D780EDA1FEA1B3
:105D400064817581868197816A197B098C099D0917
:105D5000ADA5BEA52D913D914D915C9126193709B8
:105D6000480959090E942A917B018C01EDA5FEA5E5
